{
  "contractName": "Twitter",
  "abi": [
    {
      "inputs": [],
      "stateMutability": "nonpayable",
      "type": "constructor"
    },
    {
      "inputs": [
        {
          "internalType": "string",
          "name": "",
          "type": "string"
        }
      ],
      "name": "addressOfTag",
      "outputs": [
        {
          "internalType": "bytes32",
          "name": "",
          "type": "bytes32"
        }
      ],
      "stateMutability": "view",
      "type": "function",
      "constant": true
    },
    {
      "inputs": [],
      "name": "owner",
      "outputs": [
        {
          "internalType": "address",
          "name": "",
          "type": "address"
        }
      ],
      "stateMutability": "view",
      "type": "function",
      "constant": true
    },
    {
      "inputs": [],
      "name": "isOwner",
      "outputs": [
        {
          "internalType": "bool",
          "name": "",
          "type": "bool"
        }
      ],
      "stateMutability": "view",
      "type": "function",
      "constant": true
    },
    {
      "inputs": [
        {
          "internalType": "string",
          "name": "tag",
          "type": "string"
        },
        {
          "internalType": "uint256",
          "name": "amount",
          "type": "uint256"
        }
      ],
      "name": "donateToHashTag",
      "outputs": [],
      "stateMutability": "payable",
      "type": "function",
      "payable": true
    },
    {
      "inputs": [
        {
          "internalType": "string",
          "name": "tag",
          "type": "string"
        }
      ],
      "name": "getDonatedAmountToHashTag",
      "outputs": [
        {
          "internalType": "uint256",
          "name": "",
          "type": "uint256"
        }
      ],
      "stateMutability": "view",
      "type": "function",
      "constant": true
    },
    {
      "inputs": [
        {
          "internalType": "string",
          "name": "tag",
          "type": "string"
        },
        {
          "internalType": "uint256",
          "name": "amount",
          "type": "uint256"
        },
        {
          "internalType": "address payable",
          "name": "to",
          "type": "address"
        }
      ],
      "name": "transferFromHashTag",
      "outputs": [],
      "stateMutability": "nonpayable",
      "type": "function"
    },
    {
      "inputs": [],
      "name": "getBalance",
      "outputs": [
        {
          "internalType": "uint256",
          "name": "",
          "type": "uint256"
        }
      ],
      "stateMutability": "view",
      "type": "function",
      "constant": true
    }
  ],
  "bytecode": "0x608060405234801561001057600080fd5b50336000806101000a81548173ffffffffffffffffffffffffffffffffffffffff021916908373ffffffffffffffffffffffffffffffffffffffff160217905550610b1c806100606000396000f3fe6080604052600436106100705760003560e01c8063582c0aae1161004e578063582c0aae1461011a5780638da5cb5b146101435780638f32d59b1461016e578063b32abe3d1461019957610070565b806312065fe0146100755780632d55d190146100a05780634d6effe0146100dd575b600080fd5b34801561008157600080fd5b5061008a6101b5565b6040516100979190610807565b60405180910390f35b3480156100ac57600080fd5b506100c760048036038101906100c291906105af565b6101bd565b6040516100d49190610807565b60405180910390f35b3480156100e957600080fd5b5061010460048036038101906100ff919061064c565b6101fb565b60405161011191906107ec565b60405180910390f35b34801561012657600080fd5b50610141600480360381019061013c919061068d565b610229565b005b34801561014f57600080fd5b5061015861039f565b60405161016591906107b6565b60405180910390f35b34801561017a57600080fd5b506101836103c8565b60405161019091906107d1565b60405180910390f35b6101b360048036038101906101ae91906105f4565b61041f565b005b600047905090565b600060026000600185856040516101d5929190610786565b908152602001604051809103902054815260200190815260200160002054905092915050565b6001818051602081018201805184825260208301602085012081835280955050505050506000915090505481565b6102316103c8565b61023a57600080fd5b60b48261024791906108e4565b47101561025357600080fd5b670de0b6b3a76400008261026791906108e4565b6002600060018660405161027b919061079f565b908152602001604051809103902054815260200190815260200160002060008282546102a7919061093e565b925050819055508073ffffffffffffffffffffffffffffffffffffffff166108fc670de0b6b3a7640000846102dc91906108e4565b9081150290604051600060405180830381858888f19350505050158015610307573d6000803e3d6000fd5b5060006002600060018660405161031e919061079f565b908152602001604051809103902054815260200190815260200160002054141561039a5760026000600185604051610356919061079f565b908152602001604051809103902054815260200190815260200160002060009055600183604051610387919061079f565b9081526020016040518091039020600090555b505050565b60008060009054906101000a900473ffffffffffffffffffffffffffffffffffffffff16905090565b60008060009054906101000a900473ffffffffffffffffffffffffffffffffffffffff1673ffffffffffffffffffffffffffffffffffffffff163373ffffffffffffffffffffffffffffffffffffffff1614905090565b670de0b6b3a76400008161043391906108e4565b341461043e57600080fd5b60008383604051602001610453929190610786565b604051602081830303815290604052805190602001209050806001858560405161047e929190610786565b908152602001604051809103902081905550670de0b6b3a7640000826104a491906108e4565b6002600083815260200190815260200160002060008282546104c6919061088e565b9250508190555050505050565b60006104e66104e184610847565b610822565b9050828152602081018484840111156104fe57600080fd5b6105098482856109d6565b509392505050565b60008135905061052081610ab8565b92915050565b60008083601f84011261053857600080fd5b8235905067ffffffffffffffff81111561055157600080fd5b60208301915083600182028301111561056957600080fd5b9250929050565b600082601f83011261058157600080fd5b81356105918482602086016104d3565b91505092915050565b6000813590506105a981610acf565b92915050565b600080602083850312156105c257600080fd5b600083013567ffffffffffffffff8111156105dc57600080fd5b6105e885828601610526565b92509250509250929050565b60008060006040848603121561060957600080fd5b600084013567ffffffffffffffff81111561062357600080fd5b61062f86828701610526565b935093505060206106428682870161059a565b9150509250925092565b60006020828403121561065e57600080fd5b600082013567ffffffffffffffff81111561067857600080fd5b61068484828501610570565b91505092915050565b6000806000606084860312156106a257600080fd5b600084013567ffffffffffffffff8111156106bc57600080fd5b6106c886828701610570565b93505060206106d98682870161059a565b92505060406106ea86828701610511565b9150509250925092565b6106fd81610972565b82525050565b61070c81610996565b82525050565b61071b816109a2565b82525050565b600061072d8385610883565b935061073a8385846109d6565b82840190509392505050565b600061075182610878565b61075b8185610883565b935061076b8185602086016109e5565b80840191505092915050565b610780816109cc565b82525050565b6000610793828486610721565b91508190509392505050565b60006107ab8284610746565b915081905092915050565b60006020820190506107cb60008301846106f4565b92915050565b60006020820190506107e66000830184610703565b92915050565b60006020820190506108016000830184610712565b92915050565b600060208201905061081c6000830184610777565b92915050565b600061082c61083d565b90506108388282610a18565b919050565b6000604051905090565b600067ffffffffffffffff82111561086257610861610a78565b5b61086b82610aa7565b9050602081019050919050565b600081519050919050565b600081905092915050565b6000610899826109cc565b91506108a4836109cc565b9250827fffffffffffffffffffffffffffffffffffffffffffffffffffffffffffffffff038211156108d9576108d8610a49565b5b828201905092915050565b60006108ef826109cc565b91506108fa836109cc565b9250817fffffffffffffffffffffffffffffffffffffffffffffffffffffffffffffffff048311821515161561093357610932610a49565b5b828202905092915050565b6000610949826109cc565b9150610954836109cc565b92508282101561096757610966610a49565b5b828203905092915050565b600061097d826109ac565b9050919050565b600061098f826109ac565b9050919050565b60008115159050919050565b6000819050919050565b600073ffffffffffffffffffffffffffffffffffffffff82169050919050565b6000819050919050565b82818337600083830152505050565b60005b83811015610a035780820151818401526020810190506109e8565b83811115610a12576000848401525b50505050565b610a2182610aa7565b810181811067ffffffffffffffff82111715610a4057610a3f610a78565b5b80604052505050565b7f4e487b7100000000000000000000000000000000000000000000000000000000600052601160045260246000fd5b7f4e487b7100000000000000000000000000000000000000000000000000000000600052604160045260246000fd5b6000601f19601f8301169050919050565b610ac181610984565b8114610acc57600080fd5b50565b610ad8816109cc565b8114610ae357600080fd5b5056fea2646970667358221220ad76bea2a4fbf069e46db1d5a2bacb7d7bf6d0b880265f5350fcba804081b02364736f6c63430008040033",
  "immutableReferences": {},
  "source": "// SPDX-License-Identifier: MIT\npragma solidity ^0.8.4;\n\ncontract Twitter {\n    address private _owner; \n    \n    constructor()  {\n      _owner = msg.sender;\n    }\n\n    mapping(string => bytes32) public addressOfTag; \n    mapping(bytes32 => uint) private balanceOfTags; \n\n\n    function owner() public view returns(address) {\n        return _owner;\n    }\n\n    function isOwner() public view returns(bool) {\n        return msg.sender == _owner;\n    }\n\n    modifier onlyOwner() {\n        require(isOwner());\n        _;\n    }\n\n    function donateToHashTag(string calldata tag, uint amount) external payable {\n       require(msg.value== amount * (10 ** 18)); \n       bytes32 _address = keccak256(abi.encodePacked(tag));\n       addressOfTag[tag] = _address; \n       balanceOfTags[_address] += amount * (10 ** 18); \n    }\n\n    function getDonatedAmountToHashTag(string calldata tag) external view returns(uint){\n        return balanceOfTags[addressOfTag[tag]]; \n    }\n\n    function transferFromHashTag(string memory tag, uint amount, address payable to) public onlyOwner{\n        require(address(this).balance >= amount* (10 * 18)); \n        balanceOfTags[addressOfTag[tag]] -= amount * (10 ** 18); \n        to.transfer((amount * (10 ** 18))); \n        if(balanceOfTags[addressOfTag[tag]] == 0){\n            delete balanceOfTags[addressOfTag[tag]];\n            delete addressOfTag[tag]; \n        }\n    }\n\n    function getBalance() public view returns (uint ) {\n        return address(this).balance; \n    }\n}\n",
  "sourcePath": "/home/sarmad/Documents/Twitter/contracts/Twitter.sol",
  "compiler": {
    "name": "solc",
    "version": "0.8.4+commit.c7e474f2.Emscripten.clang"
  },
  "schemaVersion": "3.4.10",
  "updatedAt": "2022-09-21T10:38:30.825Z",
  "networkType": "ethereum",
  "devdoc": {
    "kind": "dev",
    "methods": {},
    "version": 1
  },
  "userdoc": {
    "kind": "user",
    "methods": {},
    "version": 1
  }
}