{
  "contractName": "Twitter",
  "abi": [
    {
      "inputs": [],
      "stateMutability": "nonpayable",
      "type": "constructor"
    },
    {
      "inputs": [],
      "name": "owner",
      "outputs": [
        {
          "internalType": "address",
          "name": "",
          "type": "address"
        }
      ],
      "stateMutability": "view",
      "type": "function",
      "constant": true
    },
    {
      "inputs": [],
      "name": "isOwner",
      "outputs": [
        {
          "internalType": "bool",
          "name": "",
          "type": "bool"
        }
      ],
      "stateMutability": "view",
      "type": "function",
      "constant": true
    },
    {
      "inputs": [
        {
          "internalType": "string",
          "name": "tag",
          "type": "string"
        }
      ],
      "name": "contributeToHashTag",
      "outputs": [],
      "stateMutability": "payable",
      "type": "function",
      "payable": true
    },
    {
      "inputs": [
        {
          "internalType": "string",
          "name": "tag",
          "type": "string"
        }
      ],
      "name": "getHashTagBalance",
      "outputs": [
        {
          "internalType": "uint256",
          "name": "",
          "type": "uint256"
        }
      ],
      "stateMutability": "view",
      "type": "function",
      "constant": true
    },
    {
      "inputs": [
        {
          "internalType": "string",
          "name": "tag",
          "type": "string"
        },
        {
          "internalType": "uint256",
          "name": "amount",
          "type": "uint256"
        },
        {
          "internalType": "address payable",
          "name": "to",
          "type": "address"
        }
      ],
      "name": "transferFromHashTag",
      "outputs": [],
      "stateMutability": "nonpayable",
      "type": "function"
    },
    {
      "inputs": [],
      "name": "getBalance",
      "outputs": [
        {
          "internalType": "uint256",
          "name": "",
          "type": "uint256"
        }
      ],
      "stateMutability": "view",
      "type": "function",
      "constant": true
    }
  ],
  "bytecode": "0x608060405234801561001057600080fd5b50336000806101000a81548173ffffffffffffffffffffffffffffffffffffffff021916908373ffffffffffffffffffffffffffffffffffffffff160217905550610c0c806100606000396000f3fe6080604052600436106100555760003560e01c806312065fe01461005a5780633c9c977914610085578063582c0aae146100a15780638241e9c3146100ca5780638da5cb5b146101075780638f32d59b14610132575b600080fd5b34801561006657600080fd5b5061006f61015d565b60405161007c9190610921565b60405180910390f35b61009f600480360381019061009a9190610749565b610165565b005b3480156100ad57600080fd5b506100c860048036038101906100c3919061078e565b610292565b005b3480156100d657600080fd5b506100f160048036038101906100ec9190610749565b610563565b6040516100fe9190610921565b60405180910390f35b34801561011357600080fd5b5061011c6105ed565b60405161012991906108cb565b60405180910390f35b34801561013e57600080fd5b50610147610616565b60405161015491906108e6565b60405180910390f35b600047905090565b606434116101a8576040517f08c379a000000000000000000000000000000000000000000000000000000000815260040161019f90610901565b60405180910390fd5b600082826040516020016101bd92919061089b565b6040516020818303038152906040528051906020012060001c905080600184846040516101eb92919061089b565b908152602001604051809103902060006101000a81548173ffffffffffffffffffffffffffffffffffffffff021916908373ffffffffffffffffffffffffffffffffffffffff16021790555034600260008373ffffffffffffffffffffffffffffffffffffffff1673ffffffffffffffffffffffffffffffffffffffff168152602001908152602001600020600082825461028691906109b9565b92505081905550505050565b61029a610616565b6102a357600080fd5b814710156102b057600080fd5b81600260006001866040516102c591906108b4565b908152602001604051809103902060009054906101000a900473ffffffffffffffffffffffffffffffffffffffff1673ffffffffffffffffffffffffffffffffffffffff1673ffffffffffffffffffffffffffffffffffffffff16815260200190815260200160002054101561033a57600080fd5b816002600060018660405161034f91906108b4565b908152602001604051809103902060009054906101000a900473ffffffffffffffffffffffffffffffffffffffff1673ffffffffffffffffffffffffffffffffffffffff1673ffffffffffffffffffffffffffffffffffffffff16815260200190815260200160002060008282546103c79190610a0f565b925050819055508073ffffffffffffffffffffffffffffffffffffffff166108fc839081150290604051600060405180830381858888f19350505050158015610414573d6000803e3d6000fd5b5060006002600060018660405161042b91906108b4565b908152602001604051809103902060009054906101000a900473ffffffffffffffffffffffffffffffffffffffff1673ffffffffffffffffffffffffffffffffffffffff1673ffffffffffffffffffffffffffffffffffffffff16815260200190815260200160002054141561055e57600260006001856040516104af91906108b4565b908152602001604051809103902060009054906101000a900473ffffffffffffffffffffffffffffffffffffffff1673ffffffffffffffffffffffffffffffffffffffff1673ffffffffffffffffffffffffffffffffffffffff1681526020019081526020016000206000905560018360405161052c91906108b4565b908152602001604051809103902060006101000a81549073ffffffffffffffffffffffffffffffffffffffff02191690555b505050565b6000600260006001858560405161057b92919061089b565b908152602001604051809103902060009054906101000a900473ffffffffffffffffffffffffffffffffffffffff1673ffffffffffffffffffffffffffffffffffffffff1673ffffffffffffffffffffffffffffffffffffffff16815260200190815260200160002054905092915050565b60008060009054906101000a900473ffffffffffffffffffffffffffffffffffffffff16905090565b60008060009054906101000a900473ffffffffffffffffffffffffffffffffffffffff1673ffffffffffffffffffffffffffffffffffffffff163373ffffffffffffffffffffffffffffffffffffffff1614905090565b600061068061067b84610961565b61093c565b90508281526020810184848401111561069857600080fd5b6106a3848285610a9d565b509392505050565b6000813590506106ba81610ba8565b92915050565b60008083601f8401126106d257600080fd5b8235905067ffffffffffffffff8111156106eb57600080fd5b60208301915083600182028301111561070357600080fd5b9250929050565b600082601f83011261071b57600080fd5b813561072b84826020860161066d565b91505092915050565b60008135905061074381610bbf565b92915050565b6000806020838503121561075c57600080fd5b600083013567ffffffffffffffff81111561077657600080fd5b610782858286016106c0565b92509250509250929050565b6000806000606084860312156107a357600080fd5b600084013567ffffffffffffffff8111156107bd57600080fd5b6107c98682870161070a565b93505060206107da86828701610734565b92505060406107eb868287016106ab565b9150509250925092565b6107fe81610a43565b82525050565b61080d81610a67565b82525050565b600061081f83856109ae565b935061082c838584610a9d565b82840190509392505050565b600061084382610992565b61084d81856109ae565b935061085d818560208601610aac565b80840191505092915050565b6000610876601c8361099d565b915061088182610b7f565b602082019050919050565b61089581610a93565b82525050565b60006108a8828486610813565b91508190509392505050565b60006108c08284610838565b915081905092915050565b60006020820190506108e060008301846107f5565b92915050565b60006020820190506108fb6000830184610804565b92915050565b6000602082019050818103600083015261091a81610869565b9050919050565b6000602082019050610936600083018461088c565b92915050565b6000610946610957565b90506109528282610adf565b919050565b6000604051905090565b600067ffffffffffffffff82111561097c5761097b610b3f565b5b61098582610b6e565b9050602081019050919050565b600081519050919050565b600082825260208201905092915050565b600081905092915050565b60006109c482610a93565b91506109cf83610a93565b9250827fffffffffffffffffffffffffffffffffffffffffffffffffffffffffffffffff03821115610a0457610a03610b10565b5b828201905092915050565b6000610a1a82610a93565b9150610a2583610a93565b925082821015610a3857610a37610b10565b5b828203905092915050565b6000610a4e82610a73565b9050919050565b6000610a6082610a73565b9050919050565b60008115159050919050565b600073ffffffffffffffffffffffffffffffffffffffff82169050919050565b6000819050919050565b82818337600083830152505050565b60005b83811015610aca578082015181840152602081019050610aaf565b83811115610ad9576000848401525b50505050565b610ae882610b6e565b810181811067ffffffffffffffff82111715610b0757610b06610b3f565b5b80604052505050565b7f4e487b7100000000000000000000000000000000000000000000000000000000600052601160045260246000fd5b7f4e487b7100000000000000000000000000000000000000000000000000000000600052604160045260246000fd5b6000601f19601f8301169050919050565b7f4d696e696d756e20646f6e6174696f6e20697320313030207765692e00000000600082015250565b610bb181610a55565b8114610bbc57600080fd5b50565b610bc881610a93565b8114610bd357600080fd5b5056fea26469706673582212209bc958de6949c8999c91e1a52cb3dc0f8b96f8be68b8db98322e48a549be358964736f6c63430008040033",
  "immutableReferences": {},
  "source": "// SPDX-License-Identifier: MIT\npragma solidity ^0.8.4;\n\ncontract Twitter {\n    address private _owner; \n    \n    constructor()  {\n      _owner = msg.sender;\n    }\n\n    mapping(string => address) private addressOfTag; \n    mapping(address => uint) private balanceOfTags; \n\n    function owner() public view returns(address) {\n        return _owner;\n    }\n\n    function isOwner() public view returns(bool) {\n        return msg.sender == _owner;\n    }\n\n    modifier onlyOwner() {\n        require(isOwner());\n        _;\n    }\n\n    function contributeToHashTag(string calldata tag) external payable {\n       require(msg.value > 100 wei, \"Minimun donation is 100 wei.\");\n       address _address = address(uint160(uint256(keccak256(abi.encodePacked(tag)))));\n       addressOfTag[tag] = _address; \n       balanceOfTags[_address] += msg.value; \n    }\n\n    function getHashTagBalance(string calldata tag) external view returns(uint){\n        return balanceOfTags[addressOfTag[tag]]; \n    }\n\n    function transferFromHashTag(string memory tag, uint amount, address payable to) public onlyOwner{\n        require(address(this).balance >= amount); \n        require(balanceOfTags[addressOfTag[tag]] >= (amount));\n        balanceOfTags[addressOfTag[tag]] -= amount; \n        to.transfer((amount)); \n        if(balanceOfTags[addressOfTag[tag]] == 0){\n            delete balanceOfTags[addressOfTag[tag]];\n            delete addressOfTag[tag]; \n        }\n    }\n\n    function getBalance() public view returns (uint ) {\n        return address(this).balance; \n    }\n}\n",
  "sourcePath": "/home/sarmad/Documents/Twitter/contracts/Twitter.sol",
  "compiler": {
    "name": "solc",
    "version": "0.8.4+commit.c7e474f2.Emscripten.clang"
  },
  "schemaVersion": "3.4.10",
  "updatedAt": "2022-09-23T01:33:05.538Z",
  "networkType": "ethereum",
  "devdoc": {
    "kind": "dev",
    "methods": {},
    "version": 1
  },
  "userdoc": {
    "kind": "user",
    "methods": {},
    "version": 1
  }
}